{
	"data": {
		"bytecode": {
			"linkReferences": {},
			"object": "608060405234801561000f575f80fd5b506106d28061001d5f395ff3fe608060405234801561000f575f80fd5b5060043610610029575f3560e01c80639478f9e71461002d575b5f80fd5b61004760048036038101906100429190610272565b610049565b005b60015f8082825461005a9190610369565b9250508190555060405180610100016040528089898080601f0160208091040260200160405190810160405280939291908181526020018383808284375f81840152601f19601f82011690508083019250505050505050815260200187878080601f0160208091040260200160405190810160405280939291908181526020018383808284375f81840152601f19601f8201169050808301925050505050505081526020018581526020018481526020018381526020018281526020015f151581526020016001151581525060015f805481526020019081526020015f205f820151815f01908161014b91906105cd565b50602082015181600101908161016191906105cd565b5060408201518160020155606082015181600301556080820151816004015560a0820151816005015560c0820151816006015f6101000a81548160ff02191690831515021790555060e08201518160060160016101000a81548160ff0219169083151502179055509050505050505050505050565b5f80fd5b5f80fd5b5f80fd5b5f80fd5b5f80fd5b5f8083601f8401126101ff576101fe6101de565b5b8235905067ffffffffffffffff81111561021c5761021b6101e2565b5b602083019150836001820283011115610238576102376101e6565b5b9250929050565b5f819050919050565b6102518161023f565b811461025b575f80fd5b50565b5f8135905061026c81610248565b92915050565b5f805f805f805f8060c0898b03121561028e5761028d6101d6565b5b5f89013567ffffffffffffffff8111156102ab576102aa6101da565b5b6102b78b828c016101ea565b9850985050602089013567ffffffffffffffff8111156102da576102d96101da565b5b6102e68b828c016101ea565b965096505060406102f98b828c0161025e565b945050606061030a8b828c0161025e565b935050608061031b8b828c0161025e565b92505060a061032c8b828c0161025e565b9150509295985092959890939650565b7f4e487b71000000000000000000000000000000000000000000000000000000005f52601160045260245ffd5b5f6103738261023f565b915061037e8361023f565b92508282019050808211156103965761039561033c565b5b92915050565b5f81519050919050565b7f4e487b71000000000000000000000000000000000000000000000000000000005f52604160045260245ffd5b7f4e487b71000000000000000000000000000000000000000000000000000000005f52602260045260245ffd5b5f600282049050600182168061041757607f821691505b60208210810361042a576104296103d3565b5b50919050565b5f819050815f5260205f209050919050565b5f6020601f8301049050919050565b5f82821b905092915050565b5f6008830261048c7fffffffffffffffffffffffffffffffffffffffffffffffffffffffffffffffff82610451565b6104968683610451565b95508019841693508086168417925050509392505050565b5f819050919050565b5f6104d16104cc6104c78461023f565b6104ae565b61023f565b9050919050565b5f819050919050565b6104ea836104b7565b6104fe6104f6826104d8565b84845461045d565b825550505050565b5f90565b610512610506565b61051d8184846104e1565b505050565b5b81811015610540576105355f8261050a565b600181019050610523565b5050565b601f8211156105855761055681610430565b61055f84610442565b8101602085101561056e578190505b61058261057a85610442565b830182610522565b50505b505050565b5f82821c905092915050565b5f6105a55f198460080261058a565b1980831691505092915050565b5f6105bd8383610596565b9150826002028217905092915050565b6105d68261039c565b67ffffffffffffffff8111156105ef576105ee6103a6565b5b6105f98254610400565b610604828285610544565b5f60209050601f831160018114610635575f8415610623578287015190505b61062d85826105b2565b865550610694565b601f19841661064386610430565b5f5b8281101561066a57848901518255600182019150602085019450602081019050610645565b868310156106875784890151610683601f891682610596565b8355505b6001600288020188555050505b50505050505056fea2646970667358221220246ab474e8d3a992fa9ff528da2c0694a5829f9370d4a96e8ca4b8bc850e43f264736f6c63430008180033",
			"opcodes": "PUSH1 0x80 PUSH1 0x40 MSTORE CALLVALUE DUP1 ISZERO PUSH2 0xF JUMPI PUSH0 DUP1 REVERT JUMPDEST POP PUSH2 0x6D2 DUP1 PUSH2 0x1D PUSH0 CODECOPY PUSH0 RETURN INVALID PUSH1 0x80 PUSH1 0x40 MSTORE CALLVALUE DUP1 ISZERO PUSH2 0xF JUMPI PUSH0 DUP1 REVERT JUMPDEST POP PUSH1 0x4 CALLDATASIZE LT PUSH2 0x29 JUMPI PUSH0 CALLDATALOAD PUSH1 0xE0 SHR DUP1 PUSH4 0x9478F9E7 EQ PUSH2 0x2D JUMPI JUMPDEST PUSH0 DUP1 REVERT JUMPDEST PUSH2 0x47 PUSH1 0x4 DUP1 CALLDATASIZE SUB DUP2 ADD SWAP1 PUSH2 0x42 SWAP2 SWAP1 PUSH2 0x272 JUMP JUMPDEST PUSH2 0x49 JUMP JUMPDEST STOP JUMPDEST PUSH1 0x1 PUSH0 DUP1 DUP3 DUP3 SLOAD PUSH2 0x5A SWAP2 SWAP1 PUSH2 0x369 JUMP JUMPDEST SWAP3 POP POP DUP2 SWAP1 SSTORE POP PUSH1 0x40 MLOAD DUP1 PUSH2 0x100 ADD PUSH1 0x40 MSTORE DUP1 DUP10 DUP10 DUP1 DUP1 PUSH1 0x1F ADD PUSH1 0x20 DUP1 SWAP2 DIV MUL PUSH1 0x20 ADD PUSH1 0x40 MLOAD SWAP1 DUP2 ADD PUSH1 0x40 MSTORE DUP1 SWAP4 SWAP3 SWAP2 SWAP1 DUP2 DUP2 MSTORE PUSH1 0x20 ADD DUP4 DUP4 DUP1 DUP3 DUP5 CALLDATACOPY PUSH0 DUP2 DUP5 ADD MSTORE PUSH1 0x1F NOT PUSH1 0x1F DUP3 ADD AND SWAP1 POP DUP1 DUP4 ADD SWAP3 POP POP POP POP POP POP POP DUP2 MSTORE PUSH1 0x20 ADD DUP8 DUP8 DUP1 DUP1 PUSH1 0x1F ADD PUSH1 0x20 DUP1 SWAP2 DIV MUL PUSH1 0x20 ADD PUSH1 0x40 MLOAD SWAP1 DUP2 ADD PUSH1 0x40 MSTORE DUP1 SWAP4 SWAP3 SWAP2 SWAP1 DUP2 DUP2 MSTORE PUSH1 0x20 ADD DUP4 DUP4 DUP1 DUP3 DUP5 CALLDATACOPY PUSH0 DUP2 DUP5 ADD MSTORE PUSH1 0x1F NOT PUSH1 0x1F DUP3 ADD AND SWAP1 POP DUP1 DUP4 ADD SWAP3 POP POP POP POP POP POP POP DUP2 MSTORE PUSH1 0x20 ADD DUP6 DUP2 MSTORE PUSH1 0x20 ADD DUP5 DUP2 MSTORE PUSH1 0x20 ADD DUP4 DUP2 MSTORE PUSH1 0x20 ADD DUP3 DUP2 MSTORE PUSH1 0x20 ADD PUSH0 ISZERO ISZERO DUP2 MSTORE PUSH1 0x20 ADD PUSH1 0x1 ISZERO ISZERO DUP2 MSTORE POP PUSH1 0x1 PUSH0 DUP1 SLOAD DUP2 MSTORE PUSH1 0x20 ADD SWAP1 DUP2 MSTORE PUSH1 0x20 ADD PUSH0 KECCAK256 PUSH0 DUP3 ADD MLOAD DUP2 PUSH0 ADD SWAP1 DUP2 PUSH2 0x14B SWAP2 SWAP1 PUSH2 0x5CD JUMP JUMPDEST POP PUSH1 0x20 DUP3 ADD MLOAD DUP2 PUSH1 0x1 ADD SWAP1 DUP2 PUSH2 0x161 SWAP2 SWAP1 PUSH2 0x5CD JUMP JUMPDEST POP PUSH1 0x40 DUP3 ADD MLOAD DUP2 PUSH1 0x2 ADD SSTORE PUSH1 0x60 DUP3 ADD MLOAD DUP2 PUSH1 0x3 ADD SSTORE PUSH1 0x80 DUP3 ADD MLOAD DUP2 PUSH1 0x4 ADD SSTORE PUSH1 0xA0 DUP3 ADD MLOAD DUP2 PUSH1 0x5 ADD SSTORE PUSH1 0xC0 DUP3 ADD MLOAD DUP2 PUSH1 0x6 ADD PUSH0 PUSH2 0x100 EXP DUP2 SLOAD DUP2 PUSH1 0xFF MUL NOT AND SWAP1 DUP4 ISZERO ISZERO MUL OR SWAP1 SSTORE POP PUSH1 0xE0 DUP3 ADD MLOAD DUP2 PUSH1 0x6 ADD PUSH1 0x1 PUSH2 0x100 EXP DUP2 SLOAD DUP2 PUSH1 0xFF MUL NOT AND SWAP1 DUP4 ISZERO ISZERO MUL OR SWAP1 SSTORE POP SWAP1 POP POP POP POP POP POP POP POP POP POP JUMP JUMPDEST PUSH0 DUP1 REVERT JUMPDEST PUSH0 DUP1 REVERT JUMPDEST PUSH0 DUP1 REVERT JUMPDEST PUSH0 DUP1 REVERT JUMPDEST PUSH0 DUP1 REVERT JUMPDEST PUSH0 DUP1 DUP4 PUSH1 0x1F DUP5 ADD SLT PUSH2 0x1FF JUMPI PUSH2 0x1FE PUSH2 0x1DE JUMP JUMPDEST JUMPDEST DUP3 CALLDATALOAD SWAP1 POP PUSH8 0xFFFFFFFFFFFFFFFF DUP2 GT ISZERO PUSH2 0x21C JUMPI PUSH2 0x21B PUSH2 0x1E2 JUMP JUMPDEST JUMPDEST PUSH1 0x20 DUP4 ADD SWAP2 POP DUP4 PUSH1 0x1 DUP3 MUL DUP4 ADD GT ISZERO PUSH2 0x238 JUMPI PUSH2 0x237 PUSH2 0x1E6 JUMP JUMPDEST JUMPDEST SWAP3 POP SWAP3 SWAP1 POP JUMP JUMPDEST PUSH0 DUP2 SWAP1 POP SWAP2 SWAP1 POP JUMP JUMPDEST PUSH2 0x251 DUP2 PUSH2 0x23F JUMP JUMPDEST DUP2 EQ PUSH2 0x25B JUMPI PUSH0 DUP1 REVERT JUMPDEST POP JUMP JUMPDEST PUSH0 DUP2 CALLDATALOAD SWAP1 POP PUSH2 0x26C DUP2 PUSH2 0x248 JUMP JUMPDEST SWAP3 SWAP2 POP POP JUMP JUMPDEST PUSH0 DUP1 PUSH0 DUP1 PUSH0 DUP1 PUSH0 DUP1 PUSH1 0xC0 DUP10 DUP12 SUB SLT ISZERO PUSH2 0x28E JUMPI PUSH2 0x28D PUSH2 0x1D6 JUMP JUMPDEST JUMPDEST PUSH0 DUP10 ADD CALLDATALOAD PUSH8 0xFFFFFFFFFFFFFFFF DUP2 GT ISZERO PUSH2 0x2AB JUMPI PUSH2 0x2AA PUSH2 0x1DA JUMP JUMPDEST JUMPDEST PUSH2 0x2B7 DUP12 DUP3 DUP13 ADD PUSH2 0x1EA JUMP JUMPDEST SWAP9 POP SWAP9 POP POP PUSH1 0x20 DUP10 ADD CALLDATALOAD PUSH8 0xFFFFFFFFFFFFFFFF DUP2 GT ISZERO PUSH2 0x2DA JUMPI PUSH2 0x2D9 PUSH2 0x1DA JUMP JUMPDEST JUMPDEST PUSH2 0x2E6 DUP12 DUP3 DUP13 ADD PUSH2 0x1EA JUMP JUMPDEST SWAP7 POP SWAP7 POP POP PUSH1 0x40 PUSH2 0x2F9 DUP12 DUP3 DUP13 ADD PUSH2 0x25E JUMP JUMPDEST SWAP5 POP POP PUSH1 0x60 PUSH2 0x30A DUP12 DUP3 DUP13 ADD PUSH2 0x25E JUMP JUMPDEST SWAP4 POP POP PUSH1 0x80 PUSH2 0x31B DUP12 DUP3 DUP13 ADD PUSH2 0x25E JUMP JUMPDEST SWAP3 POP POP PUSH1 0xA0 PUSH2 0x32C DUP12 DUP3 DUP13 ADD PUSH2 0x25E JUMP JUMPDEST SWAP2 POP POP SWAP3 SWAP6 SWAP9 POP SWAP3 SWAP6 SWAP9 SWAP1 SWAP4 SWAP7 POP JUMP JUMPDEST PUSH32 0x4E487B7100000000000000000000000000000000000000000000000000000000 PUSH0 MSTORE PUSH1 0x11 PUSH1 0x4 MSTORE PUSH1 0x24 PUSH0 REVERT JUMPDEST PUSH0 PUSH2 0x373 DUP3 PUSH2 0x23F JUMP JUMPDEST SWAP2 POP PUSH2 0x37E DUP4 PUSH2 0x23F JUMP JUMPDEST SWAP3 POP DUP3 DUP3 ADD SWAP1 POP DUP1 DUP3 GT ISZERO PUSH2 0x396 JUMPI PUSH2 0x395 PUSH2 0x33C JUMP JUMPDEST JUMPDEST SWAP3 SWAP2 POP POP JUMP JUMPDEST PUSH0 DUP2 MLOAD SWAP1 POP SWAP2 SWAP1 POP JUMP JUMPDEST PUSH32 0x4E487B7100000000000000000000000000000000000000000000000000000000 PUSH0 MSTORE PUSH1 0x41 PUSH1 0x4 MSTORE PUSH1 0x24 PUSH0 REVERT JUMPDEST PUSH32 0x4E487B7100000000000000000000000000000000000000000000000000000000 PUSH0 MSTORE PUSH1 0x22 PUSH1 0x4 MSTORE PUSH1 0x24 PUSH0 REVERT JUMPDEST PUSH0 PUSH1 0x2 DUP3 DIV SWAP1 POP PUSH1 0x1 DUP3 AND DUP1 PUSH2 0x417 JUMPI PUSH1 0x7F DUP3 AND SWAP2 POP JUMPDEST PUSH1 0x20 DUP3 LT DUP2 SUB PUSH2 0x42A JUMPI PUSH2 0x429 PUSH2 0x3D3 JUMP JUMPDEST JUMPDEST POP SWAP2 SWAP1 POP JUMP JUMPDEST PUSH0 DUP2 SWAP1 POP DUP2 PUSH0 MSTORE PUSH1 0x20 PUSH0 KECCAK256 SWAP1 POP SWAP2 SWAP1 POP JUMP JUMPDEST PUSH0 PUSH1 0x20 PUSH1 0x1F DUP4 ADD DIV SWAP1 POP SWAP2 SWAP1 POP JUMP JUMPDEST PUSH0 DUP3 DUP3 SHL SWAP1 POP SWAP3 SWAP2 POP POP JUMP JUMPDEST PUSH0 PUSH1 0x8 DUP4 MUL PUSH2 0x48C PUSH32 0xFFFFFFFFFFFFFFFFFFFFFFFFFFFFFFFFFFFFFFFFFFFFFFFFFFFFFFFFFFFFFFFF DUP3 PUSH2 0x451 JUMP JUMPDEST PUSH2 0x496 DUP7 DUP4 PUSH2 0x451 JUMP JUMPDEST SWAP6 POP DUP1 NOT DUP5 AND SWAP4 POP DUP1 DUP7 AND DUP5 OR SWAP3 POP POP POP SWAP4 SWAP3 POP POP POP JUMP JUMPDEST PUSH0 DUP2 SWAP1 POP SWAP2 SWAP1 POP JUMP JUMPDEST PUSH0 PUSH2 0x4D1 PUSH2 0x4CC PUSH2 0x4C7 DUP5 PUSH2 0x23F JUMP JUMPDEST PUSH2 0x4AE JUMP JUMPDEST PUSH2 0x23F JUMP JUMPDEST SWAP1 POP SWAP2 SWAP1 POP JUMP JUMPDEST PUSH0 DUP2 SWAP1 POP SWAP2 SWAP1 POP JUMP JUMPDEST PUSH2 0x4EA DUP4 PUSH2 0x4B7 JUMP JUMPDEST PUSH2 0x4FE PUSH2 0x4F6 DUP3 PUSH2 0x4D8 JUMP JUMPDEST DUP5 DUP5 SLOAD PUSH2 0x45D JUMP JUMPDEST DUP3 SSTORE POP POP POP POP JUMP JUMPDEST PUSH0 SWAP1 JUMP JUMPDEST PUSH2 0x512 PUSH2 0x506 JUMP JUMPDEST PUSH2 0x51D DUP2 DUP5 DUP5 PUSH2 0x4E1 JUMP JUMPDEST POP POP POP JUMP JUMPDEST JUMPDEST DUP2 DUP2 LT ISZERO PUSH2 0x540 JUMPI PUSH2 0x535 PUSH0 DUP3 PUSH2 0x50A JUMP JUMPDEST PUSH1 0x1 DUP2 ADD SWAP1 POP PUSH2 0x523 JUMP JUMPDEST POP POP JUMP JUMPDEST PUSH1 0x1F DUP3 GT ISZERO PUSH2 0x585 JUMPI PUSH2 0x556 DUP2 PUSH2 0x430 JUMP JUMPDEST PUSH2 0x55F DUP5 PUSH2 0x442 JUMP JUMPDEST DUP2 ADD PUSH1 0x20 DUP6 LT ISZERO PUSH2 0x56E JUMPI DUP2 SWAP1 POP JUMPDEST PUSH2 0x582 PUSH2 0x57A DUP6 PUSH2 0x442 JUMP JUMPDEST DUP4 ADD DUP3 PUSH2 0x522 JUMP JUMPDEST POP POP JUMPDEST POP POP POP JUMP JUMPDEST PUSH0 DUP3 DUP3 SHR SWAP1 POP SWAP3 SWAP2 POP POP JUMP JUMPDEST PUSH0 PUSH2 0x5A5 PUSH0 NOT DUP5 PUSH1 0x8 MUL PUSH2 0x58A JUMP JUMPDEST NOT DUP1 DUP4 AND SWAP2 POP POP SWAP3 SWAP2 POP POP JUMP JUMPDEST PUSH0 PUSH2 0x5BD DUP4 DUP4 PUSH2 0x596 JUMP JUMPDEST SWAP2 POP DUP3 PUSH1 0x2 MUL DUP3 OR SWAP1 POP SWAP3 SWAP2 POP POP JUMP JUMPDEST PUSH2 0x5D6 DUP3 PUSH2 0x39C JUMP JUMPDEST PUSH8 0xFFFFFFFFFFFFFFFF DUP2 GT ISZERO PUSH2 0x5EF JUMPI PUSH2 0x5EE PUSH2 0x3A6 JUMP JUMPDEST JUMPDEST PUSH2 0x5F9 DUP3 SLOAD PUSH2 0x400 JUMP JUMPDEST PUSH2 0x604 DUP3 DUP3 DUP6 PUSH2 0x544 JUMP JUMPDEST PUSH0 PUSH1 0x20 SWAP1 POP PUSH1 0x1F DUP4 GT PUSH1 0x1 DUP2 EQ PUSH2 0x635 JUMPI PUSH0 DUP5 ISZERO PUSH2 0x623 JUMPI DUP3 DUP8 ADD MLOAD SWAP1 POP JUMPDEST PUSH2 0x62D DUP6 DUP3 PUSH2 0x5B2 JUMP JUMPDEST DUP7 SSTORE POP PUSH2 0x694 JUMP JUMPDEST PUSH1 0x1F NOT DUP5 AND PUSH2 0x643 DUP7 PUSH2 0x430 JUMP JUMPDEST PUSH0 JUMPDEST DUP3 DUP2 LT ISZERO PUSH2 0x66A JUMPI DUP5 DUP10 ADD MLOAD DUP3 SSTORE PUSH1 0x1 DUP3 ADD SWAP2 POP PUSH1 0x20 DUP6 ADD SWAP5 POP PUSH1 0x20 DUP2 ADD SWAP1 POP PUSH2 0x645 JUMP JUMPDEST DUP7 DUP4 LT ISZERO PUSH2 0x687 JUMPI DUP5 DUP10 ADD MLOAD PUSH2 0x683 PUSH1 0x1F DUP10 AND DUP3 PUSH2 0x596 JUMP JUMPDEST DUP4 SSTORE POP JUMPDEST PUSH1 0x1 PUSH1 0x2 DUP9 MUL ADD DUP9 SSTORE POP POP POP JUMPDEST POP POP POP POP POP POP JUMP INVALID LOG2 PUSH5 0x6970667358 0x22 SLT KECCAK256 0x24 PUSH11 0xB474E8D3A992FA9FF528DA 0x2C MOD SWAP5 0xA5 DUP3 SWAP16 SWAP4 PUSH17 0xD4A96E8CA4B8BC850E43F264736F6C6343 STOP ADDMOD XOR STOP CALLER "
		},
		"gasEstimates": {
			"creation": {
				"codeDepositCost": "349200",
				"executionCost": "384",
				"totalCost": "349584"
			},
			"external": {
				"create(string,string,uint256,uint256,uint256,uint256)": "infinite"
			}
		},
		"methodIdentifiers": {
			"create(string,string,uint256,uint256,uint256,uint256)": "9478f9e7"
		}
	},
	"abi": [
		{
			"inputs": [
				{
					"internalType": "string",
					"name": "_title",
					"type": "string"
				},
				{
					"internalType": "string",
					"name": "_description",
					"type": "string"
				},
				{
					"internalType": "uint256",
					"name": "_approva",
					"type": "uint256"
				},
				{
					"internalType": "uint256",
					"name": "_reject",
					"type": "uint256"
				},
				{
					"internalType": "uint256",
					"name": "_pass",
					"type": "uint256"
				},
				{
					"internalType": "uint256",
					"name": "_total_vote_to_end",
					"type": "uint256"
				}
			],
			"name": "create",
			"outputs": [],
			"stateMutability": "nonpayable",
			"type": "function"
		}
	]
}